:10000000F8FF02209901000095CF00004DCF0000BD
:100010004DCF00004DCF00004DCF00004DCF000070
:100020004DCF00004DCF00004DCF000095CF000018
:1000300095CF00004DCF00007DC5000081C50000B8
:1000400095CF000095CF000095CF000095CF000020
:1000500095CF000095CF000095CF000095CF000010
:1000600095CF000095CF000095CF000095CF000000
:1000700095CF000095CF000095CF000095CF0000F0
:1000800095CF000095CF000095CF000095CF0000E0
:1000900095CF000095CF000095CF000095CF0000D0
:1000A00095C40000A1C4000095CF000095CF0000CA
:1000B00095CF000095CF000095CF000039DF0000FC
:1000C00095CF000095CF000095CF000095CF0000A0
:1000D00095CF000029E7000095CF000095CF0000E4
:1000E00095CF000095CF000095CF000095CF000080
:1000F00095CF000095CF000095CF000095CF000070
:1001000095CF000095CF000095CF000095CF00005F
:1001100095CF000021EA000095CF000095CF0000A8
:1001200095CF000095CF000095CF000095CF00003F
:1001300095CF000095CF000095CF000095CF00002F
:1001400095CF000095CF000095CF000095CF00001F
:1001500095CF000095CF000095CF000095CF00000F
:1001600095CF000095CF0000ADC4000095CF0000F2
:1001700095CF000095CF000095CF000095CF0000EF
:1001800095CF000095CF000095CF000095CF0000DF
:1001900095CF000095CF0000584B4CF2205210B57F
:1001A0001A804DF628121A8000BF00BF0CF0F6FE30
:1001B000534B4FF030621A60524A9A60524ADA60EA
:1001C000524B4FF470021A60514A136813F4807353
:1001D00004D150490B604FF4A85313604E4B1A786A
:1001E000110703D51A7842F008021A704B4B4C499C
:1001F0002A221A704B4A4C4B8B4204D252F8040FFD
:1002000043F8040BF8E7494B494900228B4202D2DC
:1002100043F8042BFAE74749474A002352F82300E2
:1002200041F823000133662BF8D1444B444A802126
:1002300003F8011B9342FBD1424B3E4A1A60424BEA
:100240008A221A70A3F5805324225A70A0221A70B1
:100250009A799207FCD59A79D406FCD43B4A9379D3
:1002600003F00C03082B394BF9D103221A714622F3
:100270005A719A799006FCD5344A9179334B4906E4
:10028000FBD5334A4FF08271116009215160202261
:100290001A709A7902F00C020C2AFAD12D4B2E4AD0
:1002A0001A602E4B2E4A1A6000225A60072243F829
:1002B000042C2C4AC3F80C2D62B60DF09BF9154B9B
:1002C0001B68DA0705D528480DF0F6F8274B284AB1
:1002D0001A60284B1B785B0609D5244C244B2268F6
:1002E0009A4204D120480DF0E7F8002323600CF077
:1002F0005BFE11F073FF0CF04DFDFEE70E20054094
:1003000030800440823F04000100002B88ED00E0B3
:1003100010D0034014D0034002D0074000E0074053
:100320007813FF1F2C780100F806FF1F7813FF1FBA
:10033000B820FF1F0002FF1F0000000000E400E0E3
:1003400056E400E008ED00E00050064000400640A2
:100350004480044004800440C010050014E000E024
:10036000BFD401000000202078FBFA611CE00340AC
:10037000A5C3945A00F00740FFFFFFFFFFFFFFFFF8
:10038000FFFFFFFFFFFFFFFFFFFFFFFFFFFFFFFF7D
:10039000FFFFFFFFFFFFFFFFFFFFFFFFFFFFFFFF6D
:1003A000FFFFFFFFFFFFFFFFFFFFFFFFFFFFFFFF5D
:1003B000FFFFFFFFFFFFFFFFFFFFFFFFFFFFFFFF4D
:1003C000FFFFFFFFFFFFFFFFFFFFFFFFFFFFFFFF3D
:1003D000FFFFFFFFFFFFFFFFFFFFFFFFFFFFFFFF2D
:1003E000FFFFFFFFFFFFFFFFFFFFFFFFFFFFFFFF1D
:1003F000FFFFFFFFFFFFFFFFFFFFFFFFFFFFFFFF0D
:10040000FFFFFFFFFFFFFFFFFFFFFFFFDEF9FFFF23
:1004100010B5054C237833B9044B13B10448AFF33E
:1004200000800123237010BD7813FF1F000000001F
:1004300028780100084B10B51BB108490848AFF3F4
:1004400000800848036803B910BD074B002BFBD0A0
:10045000BDE81040184700BF000000007C13FF1FDC
:10046000287801007813FF1F00000000002070476B
:10047000704700BF036D0BB101207047406D003025
:1004800018BF0120704700BF10B50446806D18B139
:1004900011F0F2FE0023A365236D2BB104F11800C7
:1004A000BDE8104009F0E8BB636D002BF6D110BD2C
:1004B000F0B5002395B01A460546183104A84FF44C
:1004C0007A74224F8DF804308DF80C301293139308
:1004D0000294009709F024FC129B002B2BD05C2087
:1004E0000CF09AFD04461A4B9DF80400029A194933
:1004F000236000269DF80C302073A160226104A9BE
:10050000237504F11800666009F088FB6368124ADD
:10051000A76001334FF47A71A6652E712E732C619A
:100520006360A9602A600D4B009304A809F0A4FB46
:10053000284615B0F0BD139B002BD0D1064A2B7175
:10054000AC602B732B612A60EDE700BFD46601001D
:10055000246701008C660100F8660100B0660100A6
:10056000036D13B1184608F055B9406D08B106F097
:10057000DFBB4FF0FF30704700B5836C83B063B1D1
:10058000184601220DF1070108F074F801280CD17A
:100590009DF8070003B05DF804FBC06C28B1012290
:1005A0000DF1070106F0F0FAF0E74FF0FF30F1E748
:1005B000D0B5046D8CB1012B08BF002A01D30020F7
:1005C000D0BD1146204608F047FA0028F7D0204653
:1005D00008F04CFB0028F2D0D0BD446D002CEED0CA
:1005E000204606F0BDFB0028E9D02046BDE8D040FB
:1005F00007F0B8B938B5846D0CB1204638BD054652
:100600004FF4807011F030FE0146A86580B1286D6E
:100610000C7028B14FF4807208F0AEFCAC6DECE7C2
:10062000686D40B14FF4807206F0E0F9AC6DE4E71C
:10063000024CAC65E1E70C46DFE700BF9413FF1FF7
:10064000036D9BB11A7812F0700F00D1704710B58E
:1006500004460021184608F0FFF9606D28B1002219
:100660000023BDE8104006F07BBB10BD406D0028A4
:10067000ECD090F8313013F0500FE7D00022002377
:1006800006F06EBB036D13B1D86900217047436D4E
:1006900013B118695969704718461946704700BF69
:1006A000036D13B1586900217047436D13B193E88E
:1006B0000300704718461946704700BF036D13B119
:1006C000184607F0D7BF406D08B106F05DBA4FF08D
:1006D000FF307047836C13B1184608F09BB8C06CAC
:1006E00008B106F025BB4FF0FF307047036D33B102
:1006F0001B7813F0700F14BF012000207047406D6D
:1007000030B190F8313013F0500F14BF01200020A9
:10071000704700BF10B5036982B08DF80710BBB1F8
:100720001968104ACC68944215D1186D30B1012275
:100730000DF1070108F0D6FA02B010BD586D00287F
:10074000FAD001220DF1070107F07EF902B010BDC9
:10075000184602B010BD184601220DF10701A0474E
:1007600002B010BDA9080000006970B30368184A00
:100770001B6993420ED1026D6AB1137803F008032E
:1007800003F0FF000BB3D3695069181A48BF6FF02C
:10079000004070471847416DC1B191F8313003F006
:1007A000080303F0FF0083B1D1E90423D1E900017C
:1007B000101A30B463EB010100256FF000448D4244
:1007C00008BF844200D2204630BC704708467047BC
:1007D00005090000036963B11A68074992698A42F2
:1007E00008D1186D08B108F03BBA586D08B106F091
:1007F00043BF70471846104711080000836C13B1BF
:10080000184608F02DBAC06C08B106F035BF704725
:10081000036D13B1184608F023BA406D08B106F015
:100820002BBF7047036973B11A68084952698A423D
:1008300007D1186D08B107F0EDBF586D18B106F07B
:1008400077BA184610474FF0FF3070476105000037
:10085000036923B310B51968124A8C68944282B0B8
:1008600014D1186D48B101220DF1070107F002FF04
:1008700090B19DF8070002B010BD586D0028F8D067
:1008800001220DF1070106F07FF9F1E71846012278
:100890000DF10701A047EBE74FF0FF30EBE74FF01A
:1008A000FF307047BD060000036D13B1184608F015
:1008B00019BA406D08B107F0C7B87047836C13B11F
:1008C000184608F00FBAC06C08B107F0BDB8704701
:1008D00000B5836C83B08DF8071043B11846012230
:1008E0000DF1070108F0FEF903B05DF804FBC06CE0
:1008F0000028F9D001220DF1070107F0A5F803B097
:100900005DF804FB026D62B1137803F0080303F095
:10091000FF0003B3D3695069181A48BF6FF0004055
:100920007047416DC1B191F8313003F0080303F015
:10093000FF0083B1D1E90423D1E90001101A30B4DA
:1009400063EB010100256FF000448D4208BF844233
:1009500000D2204630BC704708467047826C62B1B6
:10096000137803F0080303F0FF0003B3D369506961
:10097000181A48BF6FF000407047C16CC1B191F8C0
:10098000313003F0080303F0FF0083B1D1E9042301
:10099000D1E90001101A30B463EB010100256FF0BA
:1009A00000448D4208BF844200D2204630BC7047CC
:1009B00008467047D0B4039C16461F4634B1012C3C
:1009C0001ED0022C0DD00020D0BC7047046DDCB1CD
:1009D000012B08BF002AF6D220461146D0BC08F0F1
:1009E0003BB8036DB3B1DA69B61847F10007012FC0
:1009F00008BF002EE7D231461846D0BC08F02CB80C
:100A0000036D8BB15A69EFE7406D0028DBD0D0BC95
:100A100006F0A6B9406D0028D5D0D0E9042392197C
:100A20007B41D0BC06F09CB9406D0028CBD0D0E90A
:100A3000002392197B41EAE738B50446806D0C4BE0
:100A4000236018B111F018FC0023A365236D04F195
:100A500018054BB1284609F00FF9064BA36028464C
:100A600009F00AF9204638BD636D002BF2D1F4E796
:100A700024670100B066010038B50446806D0E4B56
:100A8000236018B111F0F8FB0023A365236D04F176
:100A900018056BB1284609F0EFF8084BA36028460B
:100AA00009F0EAF820465C210CF0B8FA204638BD7F
:100AB000636D002BEED1F0E724670100B066010002
:100AC00070B50469244B036005461CB16668013E9D
:100AD00066600EB1284670BD2368204ADB6A9342E7
:100AE0002CD1A06D10B111F0C7FBA665236D5BB3CF
:100AF00004F1180009F0C0F82C69002CEAD0236832
:100B0000174A5B6893421CD1A06D164B236018B145
:100B100011F0B2FB0023A365236D04F11806BBB1ED
:100B2000304609F0A9F8104BA360304609F0A4F84C
:100B300020465C210CF072FA284670BD204698478A
:100B4000DAE720469847C5E7636D002BD0D1D3E79D
:100B5000636D002BE4D1E6E7F8660100890400002C
:100B6000790A000024670100B066010070B50569CC
:100B7000284B036004461DB16E68013E6E602EB1C5
:100B8000204614210CF04AFA204670BD2B68224AF8
:100B9000DB6A934230D1A86D10B111F06DFBAE65E8
:100BA0002B6D7BB305F1180009F066F82569002D5F
:100BB000E6D02B68194A5B68934220D1A86D184B88
:100BC0002B6018B111F058FB0023AB652B6D05F1BC
:100BD0001806DBB1304609F04FF8124BAB603046D7
:100BE00009F04AF828465C210CF018FA2046142136
:100BF0000CF014FA204670BD28469847D6E72846E0
:100C00009847BDE76B6D002BCCD1CFE76B6D002B08
:100C1000E0D1E2E7F866010089040000790A0000EB
:100C200024670100B0660100431E10B5132B00F2CB
:100C3000B980DFE803F0131C252E3740B749525B1B
:100C400077AE9CA580B789929B0A21216E480EF051
:100C500043FC6E48BDE810400BF016BE0F216C48F7
:100C60000EF03AFC6948BDE810400BF00DBE0F21B4
:100C700068480EF031FC6548BDE810400BF004BE3A
:100C8000102165480EF028FC6048BDE810400BF0CC
:100C9000FBBD112161480EF01FFC5C48BDE810400F
:100CA0000BF0F2BD0A215E480EF016FC5748BDE875
:100CB00010400BF0E9BD09215A480EF00DFC5348D5
:100CC000BDE810400BF0E0BD0E2157480EF004FCCB
:100CD0004E48BDE810400BF0D7BD102153480EF030
:100CE000FBFB4A48BDE810400BF0CEBD2F21504819
:100CF000504C0EF0F1FB45480BF0C6FD94F9FF3166
:100D0000002B78DB94F801324A4C002B5AD103F0C7
:100D1000DFFD00F537316C31474A4848BDE81040E7
:100D200003F02CBE0D2146480EF0D6FB3748BDE837
:100D300010400BF0A9BD0D2142480EF0CDFB334809
:100D4000BDE810400BF0A0BD0A213F480EF0C4FBE7
:100D50002E48BDE810400BF097BD0D213B480EF02A
:100D6000BBFB2A48BDE810400BF08EBD10BD0D2125
:100D700037480EF0B1FB2548BDE810400BF084BDAC
:100D80000C2134480EF0A8FB2048BDE810400BF0C1
:100D90007BBD082130480EF09FFB1C48BDE8104089
:100DA0000BF072BD04460F212C480EF095FB214636
:100DB00000230A2215480BF07BFD1448BDE81040C3
:100DC0000BF062BD092126480EF086FB0F480BF0A0
:100DD0005BFD94F801120D4800230A220BF068FD18
:100DE0000A480BF051FD11211E480EF075FB074813
:100DF0000BF04AFD8BE70C211B480EF06DFB0348FE
:100E00000BF042FD7EE700BFC46801001009FF1F20
:100E1000786701008867010098670100AC670100EE
:100E2000C0670100CC670100D8670100E8670100D6
:100E3000FC6701007C1DFF1F59110000A013FF1F5C
:100E40005C68010098680100A8680100B4680100AE
:100E500078680100886801006C680100E86801009A
:100E60003C680100486801002C6801002DE9F04F42
:100E700085B0A0B901AD02AE03AC33462A46214687
:100E800046480AF0CDFA039B33B9252144480EF0B9
:100E900023FB44480BF0F8FC05B0BDE8F08F3F4F52
:100EA000DFF82881404A384641466B4601AD02AE24
:100EB00003AC91460AF014FF38462B4632462146D1
:100EC0000AF026FFB7F840B03848D7F838A0062116
:100ED0000EF002FB00230A22594632480BF0E8FCD0
:100EE000062133480EF0F8FAB7F840102D480BF001
:100EF0001FFD2C480BF0C8FC05212E480EF0ECFA23
:100F0000514628480BF014FD062129480EF0E4FA5A
:100F1000B96B2448284F00230A220BF0C9FC214852
:100F20000BF0B2FCD8F80010D9F800202348DFF805
:100F3000A0C000294FF00003B8BF4FF00063002AA3
:100F4000B4BF4FF0805E4FF0000E002AB8BF52428F
:100F5000724481EAE17EAEEBE17E73440361184B9B
:100F600042619942019A02983A60CCF8000084D01C
:100F7000042114480EF0B0FAD8F8001009480BF01C
:100F8000D7FC062110480EF0A7FAD9F80010054842
:100F90000BF0CEFC03480BF077FC6EE7C813FF1F85
:100FA000206901001009FF1F5015FF1FF86801009C
:100FB00000690100086901008415FF1F3015FF1F3B
:100FC000FFC99A3B10690100186901005C15FF1FF9
:100FD0002C15FF1FDFF86CC0DCF8003000292DE96C
:100FE000F04FC1EB030E27DDDFF85CA0DFF85C906B
:100FF000DAF8008099F800501346C3EB0E070A4454
:10100000012607EB030B40FA0BFB1BF0010F06FA5E
:1010100003F444EA050408BF06FA03F403F10103EC
:1010200014BFE5B2A5439342EBD108EB0103CAF824
:1010300000308E4489F80050C1EB0E01CCF800104E
:10104000BDE8F08FAC14FF1F9813FF1FC713FF1FDD
:101050002DE9F04FDFF8F4B0374BDFF8F490DFF80C
:10106000F4A083B000220193CBF800200092012766
:10107000019B324953F8040F0193009BCAF800000A
:101080001940002953DB009B009A013B1B1848BF05
:101090000733002A15464FEAE303B8BFD51DB3EB6B
:1010A000E505C1F1080134D4009C254B254E2246AC
:1010B000002CB8BF073203EBE203002403F1FF3832
:1010C00005E00134AC4222DCDAF8000008210828EF
:1010D000DABFC0F1080201460022D9F80000FFF78C
:1010E00079FFDBF80030327808F8012F082BE8D1BF
:1010F000002307FA03F10133082B22EA0102F8D199
:1011000001340023AC423270CBF80030DCDD019BAF
:101110001868009B03440093019B1A460A4B9A42AD
:1011200009F10409A4D1064803B0BDE8F08F0139E4
:1011300061F007010131A6E7F806FF1F07000080F4
:10114000B413FF1FC713FF1F1807FF1F9813FF1FBC
:101150003015FF1FAC14FF1F104B10B5B3F8A6409D
:1011600004F08004A4B284B9FFF772FF234601465D
:101170001322012003F01CF80D2109480EF0ACF9F0
:101180000848BDE810400BF07FBB182106480EF060
:10119000A3F90448BDE810400BF076BB7C1DFF1F8F
:1011A000646901001009FF1F48690100F0B59FB094
:1011B000834901A80BF0E0FC824B0A2219680AA8B7
:1011C0000BF034FD0AA901A80BF094FD0AA80BF05E
:1011D00093FC7D4901A80BF091FD7C4B0A22196814
:1011E0000AA80BF00FFD0AA901A80BF083FD0AA8BD
:1011F0000BF082FC744901A80BF080FD744B0A22AD
:1012000019680AA80BF0FEFC0AA901A80BF072FDF0
:101210000AA80BF071FC6C4901A80BF06FFD6D4B37
:10122000032193ED000A0AA80BF014FD0AA901A8F6
:101230000BF060FD0AA80BF05FFC634901A80BF0FE
:101240005DFD654B032193ED000A0AA80BF002FD3A
:101250000AA901A80BF04EFD0AA80BF04DFC5A4953
:1012600001A80BF04BFD5D4B0A2219680AA80BF090
:10127000C9FC0AA901A80BF03DFD0AA80BF03CFC33
:10128000514901A80BF03AFD554B022193ED000A9C
:101290000AA80BF0DFFC0AA901A80BF02BFD0AA895
:1012A0000BF02AFC484901A80BF028FD4D4B0A22FF
:1012B00019680AA80BF092FC0AA901A80BF01AFD04
:1012C0000AA80BF019FC404901A80BF017FD464B8A
:1012D0000A2219680AA80BF081FC0AA901A80BF0E0
:1012E00009FD0AA80BF008FC44F202230AA83F4AB1
:1012F0003F4908F0ABFD1C9B002B00F0DE805C201A
:101300000BF08AFE04469DF82C500C9A9DF8343060
:101310003848394925730EAF00252060A16022614D
:101320003946237504F11800656008F077FC63689E
:101330003249334EA56501334FF47A728DF8185057
:101340008DF820500994A160636007920596384695
:101350002C4F0A9708F090FC099800285BD003688E
:10136000294A1B6B934253D1036D002B00F0A080E0
:1013700001A905A80BF062FA05A80BF085FA099CF3
:10138000CCB12368214EDB6AB34240F0A680A06D49
:1013900018B110F071FF0023A365236D002B00F03E
:1013A000A68004F1180008F067FC099D6C68013CF8
:1013B0006C60002C75D001A80BF09EFB1FB0F0BD37
:1013C000B86D01002C15FF1F746901005C15FF1F2B
:1013D0005015FF1FB013FF1FAC13FF1F5415FF1F45
:1013E0008015FF1FB414FF1F5815FF1FB814FF1FEF
:1013F0003C16FF1F246701008C660100D4660100C3
:10140000F8660100B0660100750400008904000060
:1014100098470028ACD1122139480EF05DF83948C0
:101420000BF032FA099D0596002DC4D06C68013C82
:101430006C60002CBFD12B68334ADB6A934234D1F5
:10144000A86D10B110F018FFAC652B6D002B4AD0C1
:1014500005F1180008F010FC099C002CABD02368A3
:101460002A4A5B6893423BD1A06D294B236018B197
:1014700010F002FF0023A365236D04F11805002B73
:101480003AD0284608F0F8FBA760284608F0F4FB9D
:1014900020465C210BF0C2FD01A80BF02DFB1FB014
:1014A000F0BD2B68DB6AB342CAD028469847D3E721
:1014B000436D002B7FF45CAFADE71D9B002B7FF4E9
:1014C0001EAF4FF47A72134E8DF818308DF820301D
:1014D0000993079205960EAF39E72046984764E7CF
:1014E0002046984767E76B6D002BB1D1B4E7636D79
:1014F000002B7FF456AF58E7636D002BC1D1C3E7D3
:10150000786901001009FF1F89040000790A0000B2
:1015100024670100F86601002DE9F047DFF84083F9
:101520009CB0D8F88454732365266E206F217222F4
:1015300000248DF804308DF807308DF80A308DF8CE
:1015400005608DF806008DF808108DF809208DF8DB
:101550000B40002D00F0ED8101AF08AE2346294677
:101560003A4630468DF820408DF821408DF82240D3
:1015700007F072F80446002C00F0F081B64D2C689C
:1015800040F2E6339C4244DCB44FDFF834A34FF022
:101590000009484610F0C2F89FEDAD0B41EC110B6D
:1015A0000EF032FE51EC100B10F0CEFB94FBF0F07D
:1015B00087FB0032C317C3EBA20303EB8303A0EB4B
:1015C000430009F101093030B9F1030F0AF8010DA8
:1015D00001D02C68DDE7D8F88444A14B002C00F042
:1015E000D9804FF0000E214673469E4A8DF820E0C8
:1015F00030468DF821E08DF822E007F02DF8002824
:1016000000F0DF80286840F2E633441C9C422C60E6
:10161000BBDD44F20223934A9349304608F016FC9E
:101620001A9B002B00F0B6815C200BF0F5FC044601
:1016300000279DF824500A9A9DF82C308B488C493D
:1016400020600DF130082573A160226141462375A9
:1016500004F11800676008F0E1FA63688549864D77
:10166000A76501334FF47A728DF810708DF81870F9
:101670000794A16063600592039540467F4F0897E9
:1016800008F0FAFA7E497F4C30460BF075FA7E4935
:1016900030460BF033FB7D4930460BF02FFB7C4985
:1016A00030460BF02BFB794930460BF027FB79498C
:1016B00030460BF023FB754930460BF01FFB764993
:1016C00030460BF01BFB714930460BF017FB73499A
:1016D00030460BF013FB6D4930460BF00FFB7049A1
:1016E00030460BF00BFB694930460BF007FB6D49A8
:1016F00030460BF003FB654930460BF0FFFA6A49B0
:1017000030460BF0FBFA614930460BF0F7FA6749B7
:1017100030460BF0F3FA079803681A6BA24248D1DF
:10172000036D002B49D0314603A80BF087F803A8BE
:101730000BF0AAF8079C04B32368DFF87C91DB6AFE
:101740004B4540F02481A06D18B110F095FD0023A9
:10175000A365236D002B00F02E8104F1180008F022
:101760008BFADDF81C80D8F80440013CC8F804402E
:10177000002C00F0A7800023079330460BF0BCF943
:10178000079C03951CB16568013D656045B31CB0BD
:10179000BDE8F087D3F8881499B12346314A8DF813
:1017A000514030468DF852408DF8534005F0BAFD57
:1017B00025E790470028AED0B5E7436D002BB2D1A6
:1017C000ACE70B213A480DF087FE264811F098FB54
:1017D000014624480DF080FE36480BF055F818E716
:1017E0002368354ADB6A934240F0EC80A06D10B16B
:1017F00010F042FDA565236D002B00F0FC8004F184
:10180000180008F039FA079C002CC0D023682B4A36
:101810005B68934240F0B880A06D144B236018B110
:1018200010F02AFD0023A365236D04F11805002B99
:1018300000F0F080284608F01FFAA760284608F05C
:101840001BFA20465C210BF0E9FB1CB0BDE8F087D9
:101850000000000000002440B014FF1F67666666A9
:101860003816FF1FB814FF1F3C16FF1F2467010026
:101870008C660100D4660100F8660100B0660100C4
:10188000B86D0100750400009869010074690100D9
:10189000A0690100AC690100B8690100C8690100D4
:1018A000CC690100E4690100FC6901000C6A0100D7
:1018B0008C6901001009FF1F89040000790A0000EB
:1018C000CE14FF1FD8F80030DB6A4B457DD1D8F825
:1018D000580018B110F0D0FCC8F85840D8F8503073
:1018E000002B00F08D8008F1180008F0C5F9079C66
:1018F000002C3FF440AF2368494A5B68934240D1D3
:10190000A06D484B236018B110F0B6FC0023A3650E
:10191000236D04F11808002B78D0404608F0ACF98C
:10192000A760404608F0A8F920465C210BF076FB42
:1019300021E7D8F88814002942D001AF08AE2B4621
:101940003A4630468DF851508DF852508DF853502C
:1019500005F0E8FC0446002C7FF410AED8F884149F
:10196000314B002934D03A4601F5896101233046D4
:101970008DF820408DF821408DF8224006F0AAFD18
:10198000FCE520469847F6E620469847FFE62046C5
:101990009847E6E61B9B002B7FF446AE4FF47A7225
:1019A000224D8DF810308DF818300793059203956D
:1019B0000DF1300861E6636D002B7FF4CEAED0E60A
:1019C00008AEDBE5204698471DE7404698478EE77E
:1019D000D3F8881400293FF4D1AD3A4601F5896166
:1019E000012330468DF851408DF852408DF8534018
:1019F00005F014FFC2E5636D002B7FF400AF02E732
:101A0000D8F85430002B7FF46EAF70E7636D002B75
:101A100083D185E7636D002B7FF40CAF0DE700BF2A
:101A2000790A0000246701003816FF1FF8660100DC
:101A300010B5074C074809F0C7FC2046064904F0DA
:101A400063FC2046054A0649BDE810400DF096BFEC
:101A5000D414FF1FC813FF1FD008FF1FF806FF1F75
:101A600061630000F0B50B2191B06E486E4D6F4F71
:101A70000DF032FD6E480AF007FF6E486E4A0468AA
:101A800040F2EE2613783BB12B78DB0704D50368D0
:101A900039685B1A0E2B07D8036811781B1B0029C5
:101AA00069D0B3F5FA6FEDD94FF4E13163480AF02C
:101AB000F7FD3221624804F063FF002800F0AA809D
:101AC0004FF416515F48604C0AF072FD4FF47A7083
:101AD0000BF042FD22215D480AF0D2F921215B483A
:101AE0000AF000FA59480AF081F90B21584800F031
:101AF0002BFC0C21564800F079FC1B21544800F0C7
:101B0000C5FCA4F29445172152480DF0E5FC20468F
:101B10004FF0000108F0CCFE2046C5F8904408F0D4
:101B20006FFA044650B31B214B480DF0D5FC4048DA
:101B30000AF0AAFE08AF0CAE02F0BAFE02F04EFAAE
:101B4000464B474C0FCB87E80F0094E80F0086E820
:101B50000F003B4632464349132002F043FB01206D
:101B600002F09EFC0E21032002F01EFA3E48FFF711
:101B7000F3FA11B0F0BDB34284D995E7D5F89014CB
:101B8000281D08F0FFF80028CDD0112137480DF0AE
:101B9000A3FC27480AF078FE354B3649012208AFEE
:101BA00004A81A700AF0E8FF04A938460AF0F8FF02
:101BB000314938460BF0B8F80CAE05462F4930468F
:101BC0000AF0DAFF314628460BF0A6F82C490BF054
:101BD000ABF8014668460AF0E3FF30460AF08CFF96
:101BE00038460AF089FF04A80AF086FF029B5BB121
:101BF000244D214668460BF0A5F8029B027805F8B3
:101C0000012F01349C42F4D3FFF786FC68460AF0AA
:101C100073FF91E721211C480DF05EFC04480AF097
:101C200033FE4DE71C6A0100281DFF1FB020FF1F77
:101C30001009FF1F081BFF1F101DFF1FD008FF1FEB
:101C4000D414FF1FBC08FF1FCC1AFF1FE407FF1F9F
:101C50003C07FF1F4C6A0100646A0100D46A01005E
:101C600068670100E61B0C26A013FF1F806A0100B5
:101C70009C13FF1F946A01009C6A0100A06A010086
:101C8000AC6A0100B714FF1F286A01002DE9F04F6C
:101C900089B0A74B0293DFF8E8A2DFF8A082A54C39
:101CA000DFF8B892A44F01230193DAF80030A3487B
:101CB0005B000125722188F83B3088F85E5088F877
:101CC0005D500AF07FF829469C480AF04BFA2368D9
:101CD0000593019B059DCDF80CA003F1FF3B9626D3
:101CE00023680693069B5B1BB3F57A7F06D32FE030
:101CF0000CF096F8C1B2924809F08AFF0CF07CF81B
:101D00000028F5D123680793079AA7FB02131B0944
:101D100006FB1323002BE3D18A4E4FF4FA723046B0
:101D200040F2BB4104F0B2FD48B18748F26B8749ED
:101D300002608748B6F840308261C3610B6002F0F0
:101D400061FE844B1B78002BC9D0FFF72FFAC6E742
:101D50000120FFF78BF800257F4B80481D70294636
:101D60001E2210F0F5FD039B744819787A4E30223C
:101D700001230AF081FA98F838C098F839E0E6456E
:101D80000AF1040A624622D0317863462E460FE0FB
:101D9000107EDBB200285FD00125012601EB060C86
:101DA000734509F801001A465FFA8CF19C4607D08A
:101DB0009E45424403F10103EAD86346FF20ECE765
:101DC000654A1170002D40F0AC80654B1870029B85
:101DD00053F8045B0293284611F092F80146284616
:101DE0000DF07AFB01215F480DF076FB5B4B03F1B0
:101DF0001D0113F8012F03F8012C8B42F9D1BBF11F
:101E0000020F56487CD0BBF1030F31D0BBF1010F5C
:101E100054D010F0BDF951EC100B0FF0DDFF524D16
:101E200028604E4810F0B8F9494A642303FB00F3D8
:101E3000D36028680FF084FC41EC100B02214B4862
:101E40000AF07EFD49480AF01FFD019B042B30D0AB
:101E5000019B0133019328E7002E65D1404A88F8A1
:101E6000383001210023354813700AF07BF9AEE7C2
:101E700010F08EF951EC100B0FF0AEFF3C4C2060CF
:101E8000364810F085F9002251EC100B394B0FF059
:101E9000ABFC0FF059FF2E4B186020680FF050FC80
:101EA00041EC100B594631480AF04AFD2F480AF020
:101EB000EBFC02F0A7FD09B0BDE8F08F10F068F967
:101EC00051EC100B0FF088FF2B4D2860234810F0C9
:101ED0005FF9002251EC100B264B0FF085FC0FF040
:101EE00033FF1B4B586028680FF02AFC41EC100BA5
:101EF00003211E480AF024FD1C480AF0C5FCA7E790
:101F000010F04AF91D4D2860144810F045F9104BA7
:101F10002968986015480AF00BFD14480AF0B4FCD3
:101F200096E788F8383050E70B4A117096E700BF03
:101F30002C07FF1F081BFF1FB5814E1BE407FF1F67
:101F4000C813FF1FD414FF1FB414FF1F5815FF1F21
:101F50003015FF1F9C13FF1F9513FF1F6015FF1FF8
:101F60009613FF1F0C6901008015FF1F1009FF1F4A
:101F7000B013FF1F00408F40AC13FF1F5415FF1F0D
:101F80001C07FF1F10B4047F4160022CC26003D005
:101F90005DF8044B0AF090BA83685DF8044B18476B
:101FA0002DE9F0410468E56815F0807F794D2560E2
:101FB00052D1DF0740F1B380002900F0E3800D78B3
:101FC000012B18BF45F000456563013190F824806E
:101FD00003F1FF3C48EA0828BCF1000F00F0A8809C
:101FE00021B14D7811F8028B45EA082845682E7A10
:101FF000BCF1020F06F1FF364FEA06360CBF48F07F
:10200000805548F01045B6B26563ACF1020C08E0AB
:102010000AB114700132013B05F47045B54216D97E
:102020000468E56A15F0F00FF6D0A46B13F0010F09
:1020300017464FEA242EEBD11AB107F802EB547081
:102040003A4605F47045B542A3F10203E8D8BCF165
:10205000000F6DD00468C3E7DD074CD5002900F000
:1020600089800D78012B18BF45F00045656301316B
:1020700003F1FF3E90F824C0BEF1000F41D029B11A
:1020800091F801C00D78023145EA0C2C45682E7A92
:10209000BEF1020F06F1FF364FEA06360CBF4CF0D8
:1020A00080554CF01045B6B26563AEF1020E08E003
:1020B0000AB114700132013B05F47045B54215D9DF
:1020C0000468E56A15F0F00FF6D013F0010F17461B
:1020D000A46BEDD122B107F8024B241254703A469A
:1020E00005F47045B542A3F10203E9D8BEF1000F33
:1020F00007D00468C3E79E4690F824C0BEF1000FE5
:10210000BDD11BB30468E16A11F0F00FFBD0A16BE5
:10211000DC071DD50AB111700132013BF1E790F8DF
:1021200024809C4648EA0828BCF1000F7FF458AF91
:1021300063B10468E16A11F0F00FFBD0DE07A16B18
:102140000FD50AB111700132013BF1E7BDE8F08112
:102150002AB114460D1204F8021B55702246023BA8
:10216000CFE72AB114460D1204F8025B51702246E3
:10217000023BDDE790F82450012B18BF45F00045E5
:10218000656375E790F82450012B18BF45F00045B2
:1021900065631BE700041F80F0B4464B464A186B8A
:1021A000DC6A01791170454922790A709A6A0079CE
:1021B0000870002A46D05968C9688A423ED821680A
:1021C000CC8B240402F1FF3065D4C0F30E00C88329
:1021D000C88B80B2C882196B0968C88B000452D4BE
:1021E000C2F30E00C883C88B002480B212F1FF3204
:1021F000C88218BF01229C62D96A2E4809680D68FE
:1022000000F12404A54236D00068C46814F0804F61
:102210000C680D6815BF248824780235013544F018
:1022200000440D604463196B254B097919702149ED
:1022300012B1CA6A12791A70F0BC7047521A9A62C7
:102240000122D9E7586B196805681E4C0A63CC62F5
:10225000CC682D681C4E24F080440327B542CC6026
:1022600083F825701FD1037F4260022BC2601ED00D
:10227000F0BC0AF021B9016890F82400CC6840F065
:1022800000404863CFE7CC8BC2F3080004F47E44DF
:102290002043C883A7E7CC8BC0F3080004F47E4436
:1022A0002043C88394E72B461146F0BC1847836847
:1022B000F0BC18473C07FF1F1F8000401C800040F7
:1022C0001B80004000000FFF851F000090E80C00FD
:1022D000F0B41C6859682568164F174E29432160D1
:1022E000164D17491760D66015611160417A154A7D
:1022F0005C180C3194F82C4053F8215002EBC401C7
:1023000049680D60017A5C1803EB8101247ECD6978
:1023100002EBC40149680D60817A581803EB810310
:1023200090F84000596C02EBC002F0BC5368196091
:10233000704700BF01401F000110003801100078F5
:1023400000001F8068710100F0B4254B4568AB4266
:1023500011D0437A2B4493F82C60B14209D005F197
:102360002B02002312F8014F8C421AD00133042BA8
:10237000F8D1F0BC70470B292CD0072909D01C29B3
:10238000E7D1184A137823F0030343F002031370D4
:10239000DFE7144A137823F0030343F001031370BB
:1023A000D7E795E806000968114210D00E4A02EB03
:1023B000C60600277468E918276091F82C1002EB14
:1023C000C10203F10C01546855F8212022604372C8
:1023D000F0BC7047034A137823F003031370B8E787
:1023E000146B0100061BFF1F68710100F0B4244B41
:1023F0004568AB4210D0037A2B441E7EB14209D00F
:1024000005F11702002312F8014F8C421AD0013354
:10241000042BF8D1F0BC70470C292AD0082909D028
:102420002729E8D1174A137823F00C0343F0080357
:102430001370E0E7134A137823F00C0343F004030E
:102440001370D8E795E80600096811420ED00E4ACD
:1024500002EBC606E918746800272760097E02EBC4
:10246000C10205EB83055268E96911600372F0BC93
:102470007047044A137823F00C031370BBE700BFC6
:10248000146B0100061BFF1F68710100284A436896
:102490009A4270B415D0827A1A4492F84020914240
:1024A0000DD093F840408C423FD093F841408C428D
:1024B0001DD093F842408C4208BF022118D070BC56
:1024C00070470D292BD00E2909D01B29E3D1194CB7
:1024D000227822F0300242F020022270DBE7154C15
:1024E000227822F0300242F010022270D3E701215C
:1024F0001D685C682D6825420FD00F4C04EBC202AA
:10250000002655685A182E6092F8402004EBC20449
:1025100003EB810362685B6C13608172CFE7054C4B
:10252000227822F030022270B5E70021E0E700BFF8
:10253000146B0100061BFF1F687101000BB1FFF750
:102540002FBD7047234B2DE9F041012406468440FE
:102550000BB1250337D514F4105F1F4D17D0AF68AA
:10256000AFB1B5F8003293B195F8FF3195F800227C
:1025700003F0100303F0FF0113B1AB1893F801123D
:10258000DFF85CE095F80132E8687244B847134B15
:10259000234083B12B69104A6BB10021122E1161C7
:1025A00007D092F8FF01040703D492F8C9207AB14A
:1025B000C109686998472B68074A3BB131465068A2
:1025C000BDE8F0411847FEF72FFBC4E7BDE8F081F6
:1025D0000121EEE7290C00007C1DFF1F0004040010
:1025E0007E1FFF1F08B5054B054A5A621320FFF7EF
:1025F000A9FF0220BDE8084003F072B87C1DFF1F50
:102600009D3A000008B5054B054A5A621320FFF7B2
:1026100099FF0220BDE8084003F062B87C1DFF1F4F
:10262000613A000038B50F4B0F4A93F8F8010F4993
:10263000825CD3F88450596222F08002022442F076
:10264000800200211320A3F8A420DD6683F8011284
:1026500083F8FF41FFF776FF2046BDE8384003F0DE
:102660003FB800BF7C1DFF1FA16C0100413E000070
:10267000F0B500320E4C4FF0000518BF0122656026
:10268000E56025604FF0490E070AA1726271060CE1
:102690000A0A050EE3730B0C090EA07184F800E022
:1026A000E77126726572E27223736173F0BD00BF39
:1026B0009020FF1F1D4AF8B50E46B2F9AC50E0B9A4
:1026C000B2F9AE40B2F9B03092F8FC21174F304663
:1026D00013FB024401F054FE94FBF0F00530B0F51A
:1026E000806F13DB40F2FF333046A7F8B83001F0BB
:1026F00047FEA0EB80002844F8BDB2F9AE3010FBD5
:1027000005F510FB03F4ED11E411DBE70028B4BF7D
:102710000023A7F8B8003046B8BFA7F8B83001F0DA
:102720002FFEA0EB80002844F8BD00BF7C1DFF1FDA
:10273000104B93F8BF2162B193F8BE210E2A15D831
:102740009918013283F8BE2181F8C0010122104698
:10275000704793F8BE11F229F9D85A18013182F85E
:10276000CB00012283F8BE111046704700221046AC
:10277000704700BF7C1DFF1F70B5094C0E4694F8D2
:10278000BE51FFF7D5FF18B984F8BE51002070BDC7
:102790003046FFF7CDFF0028F6D0012070BD00BF06
:1027A0007C1DFF1F10B5144CB4F8A63013F0440282
:1027B00000D010BD23F0800343F00103A4F8A6303D
:1027C00084F83A2084F8EF2184F8FE2101F0C6FE57
:1027D00002F07EF800F5F60303F2246304F11C0016
:1027E0001946064AA362636602F0C8F80320BDE8F2
:1027F000104002F075BF00BF7C1DFF1FCD390000E7
:10280000F8B5164C069E079FA27200330D4618BFFE
:102810000123014600206060E060206063714FEAA0
:10282000152E2B0CA571100C2D0E84F807E02372C9
:102830004FEA122E130E65722073012510220848EC
:1028400084F80BE06373E57325700AF0ABFABAB253
:1028500031460420BDE8F84002F066BF9020FF1F1B
:102860008020FF1FF8B5044607460D3120460D4E67
:10287000CDB201F0D1FF78B1204601F06DFD621CB0
:1028800050B185420AD9A35DFF2B05D0D4B22046B2
:1028900001F0C2FF0028EFD13846F8BD2746384680
:1028A000F8BD00BFA26C0100F32801D901207047D8
:1028B00010B50A4C014694F8C300FFF7D3FF94F813
:1028C000C330834207D0B4F8A63084F8C30043F481
:1028D0000063A4F8A630012010BD00BF7C1DFF1FBF
:1028E00010B50B4B0B49B3F8A4205962012442F0F8
:1028F00080020021132083F8FF41A3F8A42083F86D
:102900000112FFF71FFE0220BDE8104002F0E8BEF2
:102910007C1DFF1F1D3F00002DE9F04FAA4C002336
:102920008BB084F8BE3182BB84F8BF21002927DD3B
:102930000378012B24D9023B112B21D8A34AD25C66
:102940000192002A00F0D581914219DB00228146D4
:1029500000918846144683460F2B1BD8DFE813F0FE
:102960001B00D800C600920072001A005F001A0017
:102970001A001A001A001A001A001A001A00380069
:10298000002420460BB0BDE8F08F8F4A012382F867
:10299000BF31CBE70094019B1C44009B9C42F0DAC2
:1029A00019F80430012B224609EB040BE9D9023B4C
:1029B000112BE6D88549C95C01910029E1D0009826
:1029C000C4EB00084145C7DD20460BB0BDE8F08FE1
:1029D00009EB0205501CAE7819F80020EB7816437D
:1029E00048441E4301F0D4FC2D79074605F00F053D
:1029F000002E00F01881002840F01681284601F0D2
:102A00009DFC00280CBF002102211120FFF7B4FE1D
:102A10000246002ABFD120460BB0BDE8F08F4A44E1
:102A200002215378684A13F00F0308BF01230820DE
:102A300082F8FB1182F8F231FFF77AFE0246002A93
:102A4000E9D0A8E7604B93F9B620931C48BF531D0B
:102A50009B101E2B5C4ACABF1F2603F03F03334660
:102A60004FF00600D8BFDEB282F8F431977E92F8BC
:102A7000BE51FFF75DFE002840F01581524B83F8F0
:102A8000BE517EE709EB0203901C5B78484403F0DB
:102A90000F05C3F3021601F07BFC4B4AC023074627
:102AA000284682F8F93101F049FC474B93F8F911B7
:102AB00018B141F0020183F8F91127B1424B41F0FE
:102AC000010183F8F911032E04D83F4B41F00401B2
:102AD00083F8F911C72900F0F98001F007010520FA
:102AE000FFF74AFE0246002A95D054E74A4453783D
:102AF000354A03F00F0382F8BF3001F0E9FE324B94
:102B000018670420FFF714FE0246002A83D042E72C
:102B1000CDF80CB007260027029424E09BF80310A0
:102B20009BF802309BF804009BF801A043EA0121C6
:102B300000F070004FEA1A1401F0C8FD08B906F061
:102B4000FE06204601F0FAFB08B906F0FD065046E5
:102B500001F00AFC1BF8053F803008BF06F0FB06B9
:102B6000032B68D12F46C7EB0803042B07F105059B
:102B7000D4DC06A8029C029001F060FE7D1D0026B8
:102B80004FF00008029801F067FEC246CDF81080B1
:102B90004FF0000B02E058B1042B09DD0BF1050BDF
:102BA00031460320FFF7E8FD5D45CBEB0503F2DC82
:102BB0000390029801F060FE072E039A08D03C446F
:102BC000002A3FF428AFE6E67C1DFF1F1C6C0100C5
:102BD000494B049893F8C130029208F00F0843451E
:102BE0001CBF454B83F8C18001F0BEFB10F1800F84
:102BF000029A07D0404B93F9C23083421CBF3E4B30
:102C000083F8C2003C4B93F8C3305345D7D03A4BBE
:102C10003949B3F8A63081F8C3A043F40063A1F8A2
:102C2000A6303C44CCE7354F284601F087FB00280E
:102C300046D10121E9E606A8029C029001F0FEFDC2
:102C4000072E9DD14FF000084346DDF80CB00594E7
:102C5000C24644460120A8461D46CAEB0803042B81
:102C60000AF1050A11DD9BF804509BF803109BF84C
:102C700002309BF8014005F0700043EA012101F0A9
:102C800039FDD0450BF1050BE7DC2A4623460494B9
:102C90004546059C904608BB4FEA131A0626029843
:102CA00001F0DAFD74E73846FFF742FD00283FF4F3
:102CB000E5AE3046FFF73CFD00283FF4DFAE6AE6A4
:102CC0000D4B0321DF6483F83C509EE60A4B83F8EA
:102CD000F851C3F8847083F8F761FEE6049B4FEA6D
:102CE000131A504601F098FD00287FF451AF0526D5
:102CF000D5E7019C45E600BF7C1DFF1FA07008378B
:102D0000F8B52B4B2B4DA3F20A240026E26AA16FE3
:102D100084F80222100A170C84F8030284F8047263
:102D20004FEA114E080A0F0E120E1E805E809E8022
:102D3000DE8084F8052284F8061284F8070284F8FD
:102D400008E284F80972A3F108012E606E60AE609B
:102D5000EE603046102202F0E7FC94F83D0094F853
:102D6000035294F802E2A76A84F83E60C0F10703B8
:102D700040F6FF724EEA052501211A4107F501369A
:102D800005EA020301FA00F006F5CA7640F253752F
:102D900005FB03650230C0B294F83C106564FFF790
:102DA00089FCB4F8B830A4F84030281AA064F8BD03
:102DB000861FFF1F8020FF1F2DE9F04FA74C94F8BE
:102DC00001620B2E87B00ADD94F8025215F003075A
:102DD00005D105F0E005602D07D0A02D05D000201D
:102DE00084F8010207B0BDE8F08F94F8040294F86B
:102DF000032294F8053294F8061242EA002242EACD
:102E00000343A06F954A43EA01639842E7D192F8E1
:102E10000732049303F00F0B043E0BF10809B14590
:102E2000DDDC02F2022880F2C48018F80930059334
:102E30000BF1090994F8091294F80832E26FDFF8EF
:102E40001CA243EA01239B1A9BB2194603934FF637
:102E5000FF73994216BF039B02F1FF339B18029345
:102E6000012233460299FFF703FC0AF2CF11102228
:102E70007B4809F097FF0AF20221B2B2022002F069
:102E800053FC08EB060218F806E051789378D278E4
:102E9000090441EA0323134343EA0E6398429ED197
:102EA000DAF87C300299994280F087808B4296DB79
:102EB000013B994293D19AF8F031002B8FD0A02D8D
:102EC0008DD120238AF8EF31059B4FF0010A53B9C9
:102ED000BBF1000F01D0B14581DB94F8EF3113B99C
:102EE000049BD80605D5B4F8A63043F01003A4F827
:102EF000A630B4F9AA2059495A480023803284F8F0
:102F0000C53084F8F1311CBF4FF6C073A1F8AA3068
:102F1000B4F8A41094F9B53001F0070202EB4202B4
:102F20000244C1F3C1010020525C84F8F9019B1AEC
:102F30004D3384F8FB0103D4FE2BA8BFFE23DFB280
:102F4000464D84F8F371059F594605F20A203A462A
:102F5000FFF7E2FCBAF1000F7FF441AF791C3A466B
:102F600069D0C9EB0607002F0CDD002A53D008EB0F
:102F70000903A96F029A0093019705F2DF1001235C
:102F8000FFF73EFC94F8FE31344A6BBB92F8FF31F8
:102F9000059A002A53DD5FFA89F9C9EB060643F06A
:102FA000100384F8016284F8009284F8FF31012054
:102FB00018E74FF0FF3305933CE7039BB3F5804FD1
:102FC0003FF60DAF029BA02D03F10103CAF87C3040
:102FD00016D0059A00238AF8F0318AF8EF31002ADA
:102FE0003AD1DDF814A073E7049B13F0200F94F896
:102FF000FF310CBF40228022134384F8FF31C7E722
:1030000020238AF8F0318AF8EF31059B002BE8D0B5
:103010004FF0000A67E7C844CDF800800197029A94
:10302000A96F05F2CF100123FFF7EAFB059A394695
:103030004046FFF771FC94F8FE31002BD4D194F890
:10304000FF3184F8009243F02003002284F8FF311E
:1030500084F801220120C5E69A4641E77C1DFF1F46
:103060008020FF1F046C010010B5134C60B194F870
:103070003A20002342F00C0284F83A20A4F8AC3045
:10308000A4F8B03084F8FC31082001F079F9A26A84
:1030900040F22D3393FBF0F305339BB202F5F402BB
:1030A000A3F1080102F5905200FB1122A4F8B230FE
:1030B000C4F8882010BD00BF7C1DFF1F584991F83F
:1030C0000132132B40F0A280F0B591F80A6291F81A
:1030D000093201F2012043EA062601F502750022B9
:1030E00010F8014F082382EA042212F4004F4FEA3D
:1030F000420218BF82F4815203F1FF3318BF82F0FD
:10310000010213F0FF0392B2EFD18542E8D196425B
:1031100000F08280B1F80222B1F804724D6F404C89
:1031200091F8020291F8056242EA074222F07F42DA
:10313000AA426ED194F8072294F8067294F83A5095
:1031400094F808E2120442EA07221643676E46EA40
:103150000E6205F0FC05E262A7F58D5745F001020D
:1031600094F8146284F83A20A76294F8132294F831
:10317000B67084F8397094F8B57084F8387042EA03
:10318000062604F2022204F2122483EA0023082015
:1031900013F4004F4FEA430318BF83F4815300F147
:1031A000FF3018BF83F0010310F0FF009BB2EFD196
:1031B000944202D012F8010FE7E7B34200D0F0BD0D
:1031C00091F8103291F80B2291F80F6291F80C02ED
:1031D00091F80E4291F80D7281F83B201B0443EAEE
:1031E000062342EA002091F8116240EA0742234395
:1031F00043EA066342EA046245F003051B12121219
:1032000081F83A504B630A630120F0BD6FF0010072
:1032100070474FF0FF30D2E76FF00100F0BD00BF04
:103220007C1DFF1F027843788178C07842EA03232F
:1032300043EA014343EA0060704700BF4278837865
:10324000C1780078120442EA03230B4343EA00608A
:10325000704700BF30B510F0070539D0AB00052D21
:1032600003F1180334BF00220822C3EBC10110F0A0
:10327000800F0CBF102400241C315FEA102E214463
:103280000CBF00241424091B002930DD9B1ADBB27B
:10329000C0F3411219440532013991FBF3F101FBEE
:1032A00002F2920002F151040135C0F3C103EB1A9E
:1032B000DBB2042B11D841F6846043F6095104FABD
:1032C00003F24FF2244303FB020393FBF1F030BD02
:1032D0000B3101EB8101480030BD043B43F609503E
:1032E00040FA03F101EBD17040100423E7E75124C9
:1032F000DAE700BF38B5054601F092FF044601F059
:103300008FFF40EA042003B298B24FF22441884272
:1033100006D9094AA2FB0042920B01FB120080B2BF
:103320004DB1DBB2B3FBF5F205FB1233DBB24FF26A
:10333000244202FB030038BD83DE1B4310B5044664
:1033400079B90A4B93F8BF201AB11A6FA21A002A52
:1033500006DDB3F8A6201C6742F48072A3F8A6200D
:1033600010BD0846FFF7C6FF0444EAE77C1DFF1FB7
:103370002DE9F04FA24CDFF8A882012385B084F834
:10338000B430254608E094F8B430013BDBB284F851
:10339000B430002B00F0F480B4F8A63003F0C10381
:1033A000002BF0D101F094FAB5F8A69009F00206CE
:1033B000B6B20746002E40F0C28019F03C0FE2D0B2
:1033C00019F4006F40F0DF80D4F860B0B4F8A6A024
:1033D00094F8BF3013B91AF4807F06D0236FC3EB83
:1033E0000B023BEA220B28BF9B461AF0020F00F0AB
:1033F000B980844A844B19F0240F18BF13465B44EC
:103400009B1B002B40F3CD8006F5013000F5CA7000
:103410001021FFF793FFB4F8A69019F4007F79D03C
:1034200002F07EF9A26C07EB0009C9EB0203002B46
:1034300040DA95F83E301A066CD495F83D0001222A
:103440008240D2B21344DBB2190685F83E3061D413
:103450004FF0000B0FE095F83E301A0653D495F864
:103460003D20012101FA02F2D2B21344DBB2180668
:1034700085F83E3047D4981C1044626C94F83C1098
:1034800008FB03F3C0B202EBE31AFFF713F9C0EB3A
:103490000A00C9EB0003B4F8B820A064002BA4F81C
:1034A0004020D8DB0246BBF1000F03D0C2EB0B0378
:1034B000002B5DDB94F83C10544B6266CB5CB4F897
:1034C0004010A4F8B81023F0800343F08003E16CAF
:1034D000A4F8A43000230392E16684F8013202F0DC
:1034E0001FF9039A111A7F1A002F40F3CD81B5F806
:1034F000A63023F4C46323F002030B20A5F8A63002
:10350000FFF720F83FE7BBF1000F03D0C6EB0B033A
:10351000002B2DDBBF1B01F021F8B4F8B220D4F84A
:103520008830A4F8B820002F636663DB384B6B62E9
:103530001320FFF707F8022002F0D2F823E7D5F8AE
:10354000886002F0EDF8361ABB1B002BCFDBB5F814
:10355000A69019F03C0F7FF433AF19F0020F7FF4FF
:103560005CAF10E707F27123C3EB0B03002B59DBB1
:103570006FF41C715944274A274801F0FFF902E70C
:1035800005B0BDE8F08F384601F00CF9B4F8A6A0FC
:1035900020662AF4006A1FFA8AFA8346A4F8A6A0D5
:1035A00016E707F27123C3EB0B03002B3ADBBBF1E9
:1035B000000F08BF4FF0010B1AF4007FA6D002F0F5
:1035C000AFF8A26C07EB0009C9EB0203002BBFF6B2
:1035D0006DAF95F83E30190698D495F83D1001224C
:1035E0008A40D2B21344DBB2180685F83E307FF52C
:1035F00042AF8BE73146094A074801F0BFF9C2E6FE
:103600007C1DFF1F44950800D8B80500A16C01007F
:103610009D3A0000493A0000981DFF1FE525000073
:1036200000307500E36F813300F2FC8095F8FE31C5
:10363000002B40F01781D5F88020013200F0F28095
:103640000AF01806102E95F8C3B000F0758194F8B2
:10365000C83095F8CA903BB194F8BF3123B195F8C2
:10366000BE31002B40F07D81082294F8F931002111
:1036700084F8BE1184F8BF1133B1580640F10981B6
:1036800083F0400385F8F93194F8FA3133B15906E3
:1036900040F1098183F0400385F8FA3194F8FB3159
:1036A000022B00F0ED8023B1AB18082183F8021241
:1036B0000132182A00F3BD8094F8F1313BB1B5F91D
:1036C000AA30002BC0F25881002384F8F131102E6B
:1036D00014BF09F1050304231344FF2B00F3CC802E
:1036E000B6F1100A18BF4FF0010A1E465846039261
:1036F00000F032FEB042039AC0F0998094F8EFE1F6
:1037000094F8F531B4F9AA104EEA030340200029D9
:103710004FFA83FE84F80202C0F22081A1F1210356
:103720009BB2B3F52C7F34BF4FF0000C8446A2F15E
:103730000803A06F84F803024EEA03034CEA030374
:1037400094F8FEE184F807324FEA102C010C030EC6
:1037500084F804C284F8051284F80632BEF1000F22
:1037600004D195F8C630002B00F0F280D4F88030F8
:10377000591E8BB24FEA132C84F80832002384F8C8
:1037800009C284F8EF31BAF1000F40F09680DFF8FB
:10379000FCA1A6F104094B460022FEF769FF1022A6
:1037A0007849794809F0FEFA1FFA89F27749022030
:1037B00001F0BAFF0AEB09034FEA102E010C020ECA
:1037C000D870597083F802E00AF80920704BB4F8F9
:1037D000A6201BF8033094F8C4E06E49616222F41D
:1037E000196223F0600343EA4E13384642F408623C
:1037F000A4F8A620A4F8A43084F8016284F8BAB032
:1038000000F072FE94F9C23094F9BB209342A8BF35
:103810001346112084F8BC30FEF794FE012001F01D
:103820005FFFB0E55C495D4801F076F8ABE5B4F8C0
:10383000A6A094F8C930082284F8FF2113B995F89E
:10384000FE3113B1482384F8FF3100232AF4CC7AE7
:103850000A20A4F8A6A084F8013284F80032FEF70A
:1038600071FE90E50AF01806102E95F8C3B07FF4AB
:10387000EEAE4FF00009EFE6161D4FF0000A35E7F7
:10388000012385F8FB3114E7454A444801F076F8F6
:1038900079E5A91803F00703052081F80332023205
:1038A00081F80202F0E6A91803F003030A2081F868
:1038B0000332023281F80202F0E695F8C930002B9B
:1038C0003CD195F8C1302BB195F8C63013B901231E
:1038D00085F8C630DFF8B4A094F8C8E0531C224441
:1038E00053446FF49B7C82F802E218460AEB0C0109
:1038F0004A4609F057FA94F8C8E0D4F88010034615
:10390000AAF13302AAF12300BEF1000F14BF8646CC
:1039100096460139A06FB9F1000F3FF43AAF8DE838
:1039200008020A46002301467046FEF769FFD5F8F3
:103930008010A86F01392CE799468DE6802385F821
:103940000232BEF1000FC5D1012385F8FE31C1E777
:10395000D5F880300133C5F8803009E74FF0000C0E
:10396000E5E6104903931A4601F14A0009F01AFAF4
:10397000039B03F1080278E680331CBF0023A5F8FF
:10398000AA30A1E64B1FFF1F8020FF1F7E1FFF1FD5
:10399000A16C0100513F0000ED400000981DFF1F89
:1039A000052600003C1FFF1F08B5FEF7CBFD064BA8
:1039B00093F8B4201AB1022283F8B42008BDBDE800
:1039C0000840FFF7D5BC00BF7C1DFF1F10B51C4C85
:1039D000002001F085FE04F11C0000F07BFF94F84C
:1039E00001320BB3FFF76AFB00280DDB0023032035
:1039F00084F8013201F074FEA16A124A04F11C003D
:103A0000BDE8104000F0BABF0120FFF72DFBB4F86D
:103A1000A63023F0010343F00203A4F8A6300220ED
:103A2000BDE81040FFF7C0BFB4F8A63023F0030391
:103A3000A4F8A6300120BDE81040FFF7B5BF00BFD5
:103A40007C1DFF1FCD390000044B93F8B4201AB140
:103A5000022283F8B4207047FFF78ABC7C1DFF1F49
:103A600010B50D4C94F801323BB994F8B4300A4AC1
:103A700073B1022382F8B43010BD042384F8FF31FF
:103A8000FFF79AF90028F0D00D20FEF75BFDECE778
:103A9000BDE81040FFF76CBC7C1DFF1F70B5504C9B
:103AA00094F80132A56A3BB194F83A60FFF706FB3F
:103AB000002851DBA26A00E02A46B4F9AC3094F841
:103AC000FC11E56A464EC3F5F40303F59053134425
:103AD00003F501304A1C00F5CA7080350421A36249
:103AE000E56284F8FC21FFF729FC94F8FC31392BBE
:103AF00025D8B6F8B230B3F5AF7F20D8B66A032523
:103B000008210020FEF7D6FD06F5F40303F59053D7
:103B1000181AB4F8B830C4F88800A4F8B23094F891
:103B20000133B4F8A620013303F0070384F801330E
:103B300093054AD42846BDE87040FFF735BFB4F876
:103B4000A63023F4C46323F00203A4F8A6300B20AC
:103B5000BDE87040FFF728BF16F003003CD0A66A0E
:103B600094F8FC3105F59052921B12B23BB1B4F9B6
:103B7000AC100133521A92FBF3F35A1812B294F8B4
:103B80003A301749580713D4B1F8AC10144D891ABC
:103B900089B208B20028BCBF494208B2B4F9B010DB
:103BA000A4F8AE008142B8BFA5F8B00003F0F70357
:103BB000002123F0040384F83A30A4F8AC2084F800
:103BC000C51084F8FC1104259AE7FFF799F82846F8
:103BD000BDE87040FFF7E8BEFFF746FA04259EE710
:103BE0007C1DFF1F38B5514CB4F8A63094F8BE11B7
:103BF00023F0880300229BB2A4F8A63084F8C620E4
:103C000084F8FE2139B194F8BF21002A6DD043F029
:103C10001003A4F8A63000F05BFE00F5F44012306B
:103C20000021FFF78BFB94F8FF31404A580703D07F
:103C3000B2F8A630D90465D40A20FFF7B5FEB4F96E
:103C4000AA303A4A202B30DD92F8C350384BEB5C57
:103C5000FF2B1CBF05F1FF35EDB2284600F0DCFD5F
:103C6000A0BB94F8C350002000F07EFB10F1800F41
:103C700006D094F9C2302D4A834218BF82F8C200A0
:103C800094F8C330294AAB42B2F8A63004D043F4CA
:103C9000006382F8C3509BB243F480529A42A4F866
:103CA000A62002D00E20FEF74DFC94F8FD311F4CEB
:103CB00053B1B4F8A62092072CD4013BDBB284F8B0
:103CC000FD310BB9A36F6BBB012038BD94F8C32045
:103CD000164BAA42C7D0002DC5D0B3F9AA20803216
:103CE0001CBF0022A3F8AA20BDE743F00803A4F8F4
:103CF000A63084F8C92084F8C82084F8CA1084F853
:103D0000BE2188E723F480530F20A2F8A630FEF7E7
:103D100019FC91E70220FEF715FC002384F8FD3121
:103D2000012038BDFEF73EFD012038BD7C1DFF1F80
:103D3000A06C010038B52E4C94F8FE51D5B1072D7A
:103D40003ED80135EDB2EB0784F8FE513CD4606EED
:103D50000321FFF7F3FAB4F8A63094F8B42023F067
:103D60008003A4F8A630002A3ED0022384F8B430A1
:103D7000012038BD94F8C630A3B9202384F8FF3160
:103D8000B4F9AA301A4A13F1800F1CBF0133A2F80C
:103D9000AA30002384F8013284F80032BDE83840AC
:103DA000FFF720BF94F8C1209A42E6D9013384F886
:103DB000C63000F08DFD00F5F44029461230C8E70A
:103DC000602384F8FF31DBE794F8C330094A9A5C3A
:103DD000FF2ABCD0B4F8A620013B42F4006284F86C
:103DE000C330A4F8A620B2E7FFF7C2FAC0E700BFCD
:103DF0007C1DFF1FA06C010010B5104CB4F8A6305C
:103E0000190618D594F801328BB1FEF7D5FF50B1E1
:103E100094F8FE311BB194F8FF315B0607D4BDE87E
:103E20001040FFF7DFBE94F8FF31DA0704D4BDE895
:103E30001040FFF77FBF012010BD00BF7C1DFF1F9A
:103E400008B5094B93F801224AB983F8FF2100F025
:103E50003FFD00F537401B300221FFF76FFABDE848
:103E60000840FFF7C9BF00BF7C1DFF1F2DE9F0030D
:103E70001B4E348B3CB3B4F5837F28BF4FF483745F
:103E800084FB0045002C75F1000320DB270C47EA7A
:103E900005477B006FF07C047D33E41B49000B4435
:103EA000013B93FBF1F10A4492B2B2F5806F28BF57
:103EB00040F2FF3320442CBFA6F8B830A6F8B82053
:103EC000BDE8F00370476FF07C047D23E6E74FF612
:103ED000FF784FF0000914EB080445EB0905D5E71E
:103EE0007C1DFF1F70B5044610460E4600F048FAD0
:103EF000094D0146062220462C6EFFF7B7FF044409
:103F00006C6601F00DFC3246211A05F11C00BDE87B
:103F1000704000F033BD00BF7C1DFF1F10B50A4C80
:103F200094F8013213B1FFF767FF60B994F8F231EA
:103F300094F8F82105494FF2244003FB0000BDE846
:103F40001040FFF7CFBF10BD7C1DFF1F25260000CE
:103F500038B5134CB4F8A63094F8F25123F4FE733C
:103F600023F001035B055B0D40F202414FF2244256
:103F70008B4202FB05F509D000F00AFB94F8BA2049
:103F800008492846BDE83840FFF7ACBFFEF7B8FE49
:103F9000B4F8A63043F40073A4F8A630ECE700BFF1
:103FA0007C1DFF1FE128000011F1800F0A4B05D096
:103FB00093F9C2208A4218BF83F8C21093F8C32035
:103FC000054B824207D0B3F8A62083F8C30042F421
:103FD0000062A3F8A62070477C1DFF1FF0B5244D9A
:103FE00089B0A5F11C04002001F07AFB2646284682
:103FF00000F070FC0FCE01AD0FC596E8070001AED2
:1040000085E8070020464FF4417200210EF0A0FC25
:104010000FCE25460FC596E8070085E8070001F09A
:10402000FFF8054601F0FCF88022002340EA052055
:1040300084F8F5210F4AA4F8A800082701260A25CC
:10404000FF21184684F8F87184F8F26184F83C5036
:1040500084F83D10A4F8A63084F8C43084F8F73111
:10406000C4F88420E26409B0BDE8F04000F008BB69
:10407000981DFF1FA0700837034B4021FF22A3F8B3
:10408000A6109A76704700BF7C1DFF1F38B5164CEE
:10409000B4F8A630190714D5002284F8CA205A07AC
:1040A0004CBF23F0180323F098039BB21220A4F80E
:1040B000A630FEF747FAB4F8A6000B4D10F0050441
:1040C00000D038BD05F11C0000F004FC204601F0D2
:1040D00007FB95F8B4301BB1022385F8B43038BD26
:1040E000BDE83840FFF744B97C1DFF1F08B5FFF756
:1040F000CDFFFFF773FF0C20FEF724FA02490348B7
:10410000BDE8084000F008BC493A0000981DFF1FB8
:104110000D4AB2F8A63013F09C0F12D103F004013F
:1041200089B243F00803A2F8A63019B982F8FE114B
:1041300082F8C61092F8B430034A1BB1022382F809
:10414000B4307047FFF714B97C1DFF1FF8B5174C4A
:10415000B4F8A66006F09C0616BBF32A154622D8D2
:104160001F46064619B104F1CB0008F01BFE84F887
:10417000C97084F8C86084F8CA50FFF7C9FFB4F862
:10418000A6300A4A1B0709D492F8FF3113F0080F32
:1041900014BF6FF002006FF00300F8BD0020F8BDFF
:1041A0004FF0FF30F8BD6FF00100F8BD7C1DFF1F20
:1041B00030B50B4CB4F8A64004F09C0485B005461D
:1041C00044B91046039302910192FEF76DFB039BE5
:1041D0000299019A284605B0BDE83040FFF7B6BF06
:1041E0007C1DFF1F70B5234C1D466067A1672AB177
:1041F000114604F2CF10102208F0D4FD25B1294653
:1042000010221D4808F0CEFDB4F8A630B4F9AA007B
:104210001A49C4F8841023F4854323F0260343F499
:104220000062082600230A25A4F8A620114A84F873
:10423000C530803084F8F13184F8F03184F8EF3102
:1042400084F8C13084F8C63084F8F93184F8FB3141
:1042500084F8F63184F8F73184F8013384F8F86192
:1042600084F83C50C4F88030E367E16418BFA2F8DA
:10427000AA3070BD7C1DFF1F5B1FFF1FA070083799
:1042800070B4164A0409443402EB440500F00F06EA
:10429000A98841FA06F313F0010308D03F2810D88B
:1042A000B2F8A030013BA2F8A030012000E018468F
:1042B000012302EB4402B34021EA0301918070BC68
:1042C00070474038072806D8B2F8A230013BA2F860
:1042D000A2300120ECE70120EAE700BF7C1DFF1FB0
:1042E0000109154B443103EB410230B4928800F0D0
:1042F0000F0542FA05F4E40708D43F2810D8B3F8B4
:10430000A0000130A3F8A000012000E0002001245B
:1043100003EB410304FA05F10A439A8030BC70476D
:104320004038072806D8B3F8A2000130A3F8A2004D
:104330000120ECE70120EAE77C1DFF1F0D2806D8CD
:10434000044B18444078FF3818BF01207047002004
:10435000704700BFA06C01000D289ABF014B185C8C
:1043600000207047906C010000F00F030F2B1ABF64
:104370006FEA400000F01E006FF07F00704700BF42
:10438000024B00F0070053F820007047306C01002A
:1043900008B50138FEF746FF6423000A044A0549C0
:1043A00003FB00F002448A4288BF002008BD00BF22
:1043B00080923CCA80BA8C01472801D8FFF760BFC1
:1043C00000207047472801D8FFF78ABF00207047B8
:1043D0000728F8B5074627D8FC00E4B204F1080620
:1043E000F6B2B4424FF0000506DB0FE000200134C6
:1043F0000543B442EDB209DA472CF7DCE0B2FFF72F
:104400006FFF01340543B442EDB2F5DB07F1400024
:10441000C0B2472803D900202843C0B2F8BDFFF737
:104420005FFF2843C0B2F8BDA621024801F008FC96
:10443000D2E700BF486C01000728F8B5074627D827
:10444000FC00E4B204F10806F6B2B4424FF00005F5
:1044500006DB0FE0002001340543B442EDB209DA77
:10446000472CF7DCE0B2FFF70BFF01340543B44201
:10447000EDB2F5DB07F14000C0B2472803D90020B8
:104480002843C0B2F8BDFFF7FBFE2843C0B2F8BD19
:10449000B621024801F0D4FBD2E700BF486C01000E
:1044A0000728F8B5064617D800242546F7B206E0D7
:1044B000FFF7C2FF01342843082CC5B20AD0A64238
:1044C000E0B2F5D13846FFF783FF01342843082CCA
:1044D000C5B2F4D12846F8BDC821024801F0B0FBAE
:1044E000E2E700BF486C010038B5174B93F8BE20D7
:1044F0003F2A1ED8154CB3F8A050154904FB02F210
:10450000312D11448CBF1E221522D96683F8BB20A1
:1045100093F8BF300C4D5BB1044695F80112B5F825
:10452000A400FEF797FE95F8BF3098402044286716
:1045300038BD084C0849403A04FB02F211441A22E3
:10454000D96683F8BB20E3E77C1DFF1F400D030005
:104550006001C835006A1800C0AFD23510B4094BED
:10456000094C93F80113094A002004FB012283F847
:10457000010241F29631DA66A3F8A4105DF8044B0B
:10458000704700BF7C1DFF1FC0270900A0700837BF
:1045900010B41649164C91F8BE00164B91F8BA208B
:1045A00000F0070004FB00F00344032ACB6691F8F7
:1045B000F7319ABF0A32D31AC3F10D03DBB2072BCE
:1045C00010D90D2B28BF0D235A1C0B4881F8BA3087
:1045D000835C5DF8044B23F0800343F08003A1F873
:1045E000A430704709220823EFE700BF7C1DFF1F9E
:1045F000C0270900A0700837A06C0100F8B5044678
:104600000D461646FAB1AC4223D22D1BAE4227DC32
:1046100023072BD1184E96F828302009FF2B4FEA9C
:10462000400005F10F02A6F10A0108BF4FF0FF3369
:104630000144C2F30F12304401F026FC201858BF89
:1046400086F82800F8BD33210C4801F0F9FAAC4295
:10465000DBD3342109482D1B01F0F2FAAE42D7DD3D
:104660003521064801F0ECFA2307D3D03621034860
:1046700001F0E6FACEE700BF121EFF1FB06C01008A
:1046800070B4114B00214FF6FF72FF26402508241D
:10469000A3F89810A3F89A10A3F89C10A3F89E1002
:1046A000A3F8961083F8BE20A3F89460A3F8A05056
:1046B000A3F8A240A3F88C20A3F88E20A3F89020A2
:1046C000A3F8922070BC70477C1DFF1F4F2803D8B1
:1046D000402803D001207047502805D111F47F4FA6
:1046E0000CBF01200020704700F0EF006028F5D0DB
:1046F00000207047502870B50E463ED04F28054622
:1047000033D9002405E00134E4B2FFF755FE402C14
:1047100008D0602D2046F6D10134E4B2FFF752FEF6
:10472000402CF6D1402516F0010F4FF048042846E2
:104730000BD00135EDB2FFF745FEAC424FEA56060D
:104740000CD916F0010F2846F3D128460135EDB2F9
:10475000FFF732FEAC424FEA5606F2D8104BD3F8C0
:10476000A000003018BF012070BD4028DAD000F151
:104770001004E4B2A042E4D3F0E7002407E0FFF71E
:1047800027FE0134E4B2082C4FEA5606E6D016F0B4
:10479000010F2046F3D12046FFF74EFEF1E700BFA0
:1047A0007C1DFF1F38B51A4B93F8C320032A04461B
:1047B00012D9B3F8A20020BBB3F8A020CAB11549A2
:1047C0000979FF290CBF04250325402183F8C35034
:1047D000FFF714FF204638BDB3F8A0205AB9B3F84C
:1047E000A22032B104254821402083F8C350FFF7AE
:1047F00005FF204638BD40210020FFF7FFFE204680
:1048000038BD024648214020FFF7F8FE204638BD5B
:104810007C1DFF1FA06C01000328074B06D8B3F8CE
:10482000A000062894BF002001207047B3F8A20022
:10483000003018BF012070477C1DFF1F10B5054CCC
:104840000A22214608F0AEFAA18AE28A82814181D9
:1048500010BD00BF081EFF1F064B10B501460446E1
:104860000A22184608F09EFA6189A289C2828182D2
:1048700010BD00BF081EFF1F08B50A2203490DF036
:10488000D1FF003018BF012008BD00BF081EFF1F68
:1048900008B5064B00221A605A6001F077FA00F062
:1048A0004BFC10B1FFF7E8FB012008BD8815FF1F86
:1048B00008B50548FFF7ECFF00B108BD35210348F6
:1048C000BDE8084001F0BCB9C46A0100F86C010001
:1048D00001F064B910B5044601F09CF90D4B616814
:1048E0001A1D002908BF13461A6842B1944203D129
:1048F0000AE09C4207D01A461368002BF9D1BDE8A4
:10490000104001F08FB9134622681A60BDE81040CC
:1049100001F088B98815FF1F38B504460D4601F02F
:1049200079F96368E3B9134B181F1A6842B19442CE
:1049300003D119E09C4216D01A461368002BF9D116
:104940004268A5600023236063600AB90FE01A463D
:104950001368002BFBD11460BDE8384001F062B948
:1049600005480346E1E7134622681A60E8E7014A72
:10497000F1E700BF8C15FF1F8815FF1FF8B505462E
:104980001746002914BF0E46012601F043F96B6853
:1049900023BB1A4B191F1C6844B1A54203D121E067
:1049A0009D421ED01C462368002BF9D10B686E6017
:1049B0000021AF602960FBB15A68921B8A4204DD76
:1049C00013E05A68921B002A10DC19461B68002B62
:1049D000F7D10D60BDE8F84001F024B908490B4655
:1049E000D9E723462A681A60E0E705492B600D6085
:1049F000BDE8F84001F016B90149EAE78C15FF1F40
:104A00008815FF1F70B5104D01F0A4F801F002F9F0
:104A10006C6844B123686B6001F004F9A368204618
:104A2000BDE8704018472B683BB1586801F0E8F8C2
:104A300018B12C6823682B60EEE701F0FFF8BDE8A1
:104A4000704001F0EFB800BF8815FF1F10B501F0EE
:104A5000A9F900B910BD0446FFF73AFF2044BDE8AC
:104A6000104001F0ADB800BF30B510F0070583B0BD
:104A700004460BD102A9012201F8010D812001F0A9
:104A800085F82846FFF7E2FF03B030BD0120FFF7AD
:104A9000DDFF02A9012201F8014D812001F076F825
:104AA00003B030BD10B5114B114AD96E82B000234E
:104AB000C804490B0DF0E0F902A90446230C01F8E3
:104AC000013D0122862001F061F802A9230A01F8C4
:104AD000023D0122872001F059F802A9012201F8C4
:104AE000034D882001F052F802B010BD7C1DFF1F5D
:104AF0000048E80130B585B004A9022301F8063D5D
:104B000005460122822001F041F804A9802301F822
:104B1000073D0122832001F039F804A9012401F89E
:104B2000084D2246842001F031F804A9992301F8A8
:104B3000093D2246852001F029F804A9122301F835
:104B40000A3D2246A72001F021F8002D04A914BF38
:104B5000D823D02301F8013D2246B02001F016F8F9
:104B600004A9402301F8023D2246B12001F00EF8CD
:104B700004A9C12501F8035D2246A82001F006F82A
:104B800004A9942301F8043D2246A92000F0FEFF69
:104B900004A9224601F8055DAA2000F0F7FF05B040
:104BA00030BD00BFF0B54C4CB4F8A430C3F3C10520
:104BB000012D83B003F0070600F08580C0F08180EE
:104BC000022D4AD04FF4E371444801F039F8B4F8AB
:104BD000A4300027C3F34112022A44D0032A77D01D
:104BE000012A14BF47F0020747F004071B0A3ED111
:104BF00002A9012201F8057D9D2000F0C7FFB4F84D
:104C0000B830B4F8A420C3F3012303EB06136033D8
:104C1000DBB2120602A958BF43F0040301F8043DB9
:104C200001229E2000F0B2FF731F012B3ED9062EF9
:104C30004BD002A9042301F8033D0122A62000F075
:104C4000A5FF022D1CD002A9032301F8023D012279
:104C5000B62000F09BFF03B0F0BDC3F34112022A5F
:104C60004FF09007BAD11B0A47F00607C0D002A93F
:104C7000012201F8063DA220174300F087FFB7E7A5
:104C800002A9E36E164C01F8025D0122B620A34290
:104C90008CBF64247F2400F079FF02A9012201F86F
:104CA000014DBA2000F072FF03B0F0BD002DBED15F
:104CB00002A90C2301F8033D0122A62000F066FFA3
:104CC000C1E7702786E7802784E7012DB1D1EFE7A0
:104CD00047F008078AE700BF7C1DFF1F3C6D0100FD
:104CE00040DD4A1F10B5012282B0044601A91046DA
:104CF00000F050FF9DF8040020F007002043FFF76C
:104D0000B3FE02B010BD00BF70B5404D95F9BC4078
:104D1000132C82B014DC0D2C40DD112C5DDCEA6E0E
:104D20002146012001F064F801284CD0022811D05E
:104D30000E2C64D144F07004E4B2272504260CE064
:104D400002201424EA6E214601F052F801283AD0DC
:104D5000022854D1302507268F2402A9012201F808
:104D6000014D892000F012FF01A901224D2000F021
:104D700011FF9DF8043023F00703334301A90122FA
:104D8000CD208DF8043000F001FF02A9012201F8C6
:104D9000055D8B2000F0FAFE02B070BD6FF00303DA
:104DA0009C42B8BF1C462146EA6E002001F020F864
:104DB000012815D00228CDD00B2CBBDC0434E4B282
:104DC00027250426C9E795F8A4305B0710D0112CDD
:104DD00017DD8F242B250426BFE701201124B1E71E
:104DE00095F8A4305A070CD10A2CD8BF8924F1DDDC
:104DF000112CEEDC023C64F07F04E4B2EAE77E248E
:104E00009BE7012CF6DC8024E4E700BF7C1DFF1F3C
:104E100070B5764C764BE26E86B005469A428CBFF2
:104E200080208820FFF720FE012205A9104600F00F
:104E3000B1FE9DF91430002B04DB40F29B316D482C
:104E400000F0FEFE0120FFF74DFF022D00F09F80D5
:104E5000FFF7A8FEFFF726FE06A9232301F8113D60
:104E600001228C2000F092FE06A9FF2301F8123DDA
:104E70000122A32000F08AFE94F80233012205A942
:104E80003320002B75D000F085FE9DF8143006A964
:104E900023F0400301F8103D0122B32000F076FE1C
:104EA000B4F8A46005A90122312000F073FE9DF83A
:104EB0001430C6F3C10603F07803012E43F0030358
:104EC00006A975D963F07F0301F80B3D0122B120DB
:104ED00000F05CFEB4F8B8308DF8143005A901225A
:104EE0009F2000F053FE06A9342301F8053D01225E
:104EF000B92000F04BFE06A90C2301F8063D012263
:104F0000C02000F043FE06A9FF2301F8073D01225F
:104F1000922000F03BFE384B344E5B5D06A9DB432C
:104F200001F8083D0122912000F030FE002000F041
:104F3000A9FD06A9002401F8094D01228D2000F0E9
:104F400025FE06A9012201F80A4D8F2000F01EFE61
:104F500055B9706E00F034FE04460620FFF7C2FE1D
:104F6000002C3BD106B070BD0520FFF7BBFE06B09C
:104F700070BD00F00FFE9DF8143006A943F0400309
:104F800001F80F3D0122B32000F000FE88E706A9DA
:104F90000A2301F8133D01229D2000F0F7FD06A928
:104FA000702301F8143D01229E2000F0EFFD53E72D
:104FB00001F80C3D0122B12000F0E8FD06A94026D1
:104FC00001F80D6D0122AF2000F0E0FD06A90122DD
:104FD00001F80E6DB02000F0D9FD7BE7326D736DE6
:104FE000144401333465736506B070BD7C1DFF1F2A
:104FF00040DD4A1F3C6D0100906D010030B501227B
:1050000085B0054603A9104600F0C4FD9DF80C309C
:105010005B0772D1454C94F8A43013F0070304D019
:105020002846FFF7F5FE05B030BD012D70D0404B8E
:10503000E06E984294BF08200020FFF715FD012282
:10504000104603A900F0A6FD9DF90C30002B67DB8C
:105050000120FFF747FEFFF725FD04A9232301F8F0
:105060000A3D01228C2000F091FD04A91E2301F8C5
:10507000093D01228D2000F089FD04A90B2301F8D0
:10508000083D0122922000F081FD04A9122301F8BD
:10509000073D0122932000F079FD04A9AA2301F81D
:1050A000063D01229F2000F071FD04A9FF2301F8B5
:1050B000053D0122A12000F069FD0120FFF71AFD46
:1050C0003823C02003A901228DF80C3000F05EFDCA
:1050D000002000F0D7FCB5B9606E144D00F070FDF3
:1050E00004460520FFF7FEFD002C9CD02A6D6B6D59
:1050F000144401332C656B6595E740F229410D4856
:1051000000F09EFD86E70520FFF7ECFD05B030BD01
:10511000616A84F8013204F11C00FFF7FDFB86E7A9
:1051200040F20241034800F08BFD91E77C1DFF1F18
:1051300040DD4A1F3C6D0100F0B5012083B0FFF750
:1051400085FC002000F0AEFCFFF7C2FB3E3000F013
:1051500037FD022000F0A6FCFFF7BAFB00F59C70BB
:1051600000F02EFD0020FFF7BDFD01A90122422025
:1051700000F010FD9DF80430122B02D0002003B087
:10518000F0BD00F027FEB0BB0220FFF741FE012278
:105190001046694600F0FEFC9DF8003003F007035E
:1051A000052BF4D11C4E06F10F0708250122694694
:1051B0002C2000F0EFFC9DF80040012269462C20D5
:1051C000144000F0E7FC9DF8003003F00103A34217
:1051D000ECD03378013D44EA43043470E6D1013623
:1051E000B742E2D10D4B284610221A70FFF77AFD24
:1051F000012003B0F0BD01A901224B2000F0CAFC40
:105200009DF8043001A943F010030122CB208DF852
:10521000043000F0BBFCB7E79115FF1F9015FF1F8E
:1052200038B50E4D2C7834B1102C0DD0631CDBB288
:10523000285D2B7038BD40F28C41094800F000FD1C
:105240000123285D2B7038BD22462946002400200A
:1052500000F06AFA0123285D2B7038BD9015FF1FFE
:105260003C6D01002DE9F043814683B001200E46DC
:10527000FFF7CEFD1E4A1F4BD26E9A4294BF6FF0CD
:10528000A3076FF09C0700F029FC0744FFF720FB01
:105290001F3000F095FCFFF71BFB002581442C46D6
:1052A000A846012201A91B2000F074FC9DF80430DF
:1052B00098451C4438BF9846FFF70AFBC9EB00002D
:1052C00001350028ADB2A4B2EBDB0020FFF70AFDE8
:1052D000BBB204EB5504984494FBF5F41C443780AE
:1052E000B480A6F80280F58003B0BDE8F08300BF6B
:1052F0007C1DFF1F40DD4A1F70B5012286B004A946
:10530000104600F047FC9DF810305B0740F0EC8041
:105310007D4CA06E002809DD04A9FFF7A3FFBDF9AD
:10532000122094F9BD309A4280F2E78094F8A400EC
:10533000754E10F007057BD0744BF06E98428CBF11
:1053400080208820FFF790FB012204A9104600F07E
:1053500021FC9DF91030002B04DB40F221316C4818
:1053600000F06EFC0120FFF7BDFCFFF71BFCFFF710
:1053700099FB06A9082301F8103D01228A2000F0BC
:1053800005FCFFF7C1FC06A9342301F80F3D0122FB
:10539000B92000F0FBFB06A97C2301F80E3D012299
:1053A000C02000F0F3FB06A9FF2301F80D3D012208
:1053B000922000F0EBFB06A9F72301F80C3D012237
:1053C000912000F0E3FB06A9002501F80B5D012206
:1053D0008E2000F0DBFB06A9012201F80A5D8D207A
:1053E00000F0D4FB06A994F80132474D01F8093DBD
:1053F0000122A22000F0CAFB05F2022194F801224A
:10540000802000F0C3FB012000F03CFB206E20B99F
:105410000320FFF767FC06B070BD00F0D1FB002849
:10542000F6D0AA6DEB6D10440133A865EB65EFE78C
:10543000364BF06E984294BF08200020FFF714FB13
:105440000120FFF74FFC2846FFF754FB06A9012275
:1054500001F8165DA52000F099FB06A9052301F8C7
:10546000153D0122A62000F091FBFFF71BFBFFF783
:105470004BFC06A9292301F8143D01228A2000F0E3
:1054800085FB06A9342301F8133D0122C02000F05A
:105490007DFB94F8013206A9013301F8123D012287
:1054A000B22000F073FB06A994F8013201F8113D17
:1054B0000122802000F06AFB94F8012206F202210A
:1054C000802000F063FB012000F0DCFA206E002851
:1054D0009ED000F075FB00289AD0B26DF36D104499
:1054E0000133B065F36593E70020FFF7FBFBFFF79F
:1054F000EFF93E3000F064FB0AE7616A04F11C003A
:10550000FFF70AFA06B070BD7C1DFF1F40DD4A1F81
:105510003C6D010070B5012282B010460D4601A914
:1055200000F038FB9DF90430002B4FF0010201A977
:1055300027DB3E2000F02EFB012201A93F2000F0D6
:1055400029FB9DF8043003F0080202F0FF06AAB917
:1055500003F0040303F0FF025B4C002B40F08B8050
:1055600084F801220120FFF7BDFB0020FFF7BAFB02
:10557000616A5648FFF7D0F902B070BD524C2566FB
:10558000F0E7122000F006FB9DF804304E4C1E0799
:1055900084F8033311D5023D256601A9FF250122B8
:1055A00091208DF8045000F0F1FA02A9012201F8CF
:1055B000055D922000F0EAFAD7E703F0400202F01E
:1055C000FF01002A6BD0B4F8A43013F0180F05D1F6
:1055D00003F007033E4A32F81330ED1A1D20012272
:1055E00001A9656600F0D6FA9DF80430D8074CBFD3
:1055F00022201320012201A900F0CCFA9DF80430EA
:1056000084F80132012201A9102000F0C3FA02A996
:105610009DF8043001F8063D01228D2000F0B6FA15
:1056200094F801222B49002000F0B4FA012201A9CC
:10563000192000F0AFFA9DF8043084F8B63001224A
:1056400001A91A2000F0A6FA234BE16E9DF8042070
:10565000994294F9B6108CBFA2F19D03A2F1A40364
:1056600000291BB220DB13F1630F25DA40335BB254
:1056700084F8B53091E701A901223220656600F077
:1056800089FA9DF8042084F8012204F202213046B0
:1056900000F080FA84F8B66084F8B56062E71B0613
:1056A00048BF84F8011278E74942A3EBA1031BB27B
:1056B0003F2BDBDD7F23DBE70849A1FB021203EB75
:1056C000D2031BB2F4E700BF7C1DFF1F981DFF1F14
:1056D000806D01007E1FFF1F40DD4A1F898888887A
:1056E000042819D8DFE800F00A0D121503000B4B4F
:1056F0001A6E0AB901221A66FFF7FEBD0020FFF7F5
:10570000F1BA064B00221A66FFF7F6BD0020FFF73C
:1057100075BC0120FFF772BC704700BF7C1DFF1FE6
:1057200040F27120704700BF2DE9F04120F00806DB
:10573000022E84B00D46144646D0042E0FD01EB162
:10574000002004B0BDE8F081002AF9D0A819103675
:105750006A49F6B200F0DAFCB442F7D8F0E7002A62
:10576000EED0674E96E80F008DE80F00684663495B
:1057700000F0CCFC6F46B0462A789DF800102B460E
:105780004A40013C03F8012BA4B210353946601E93
:10579000B4B11C7811F8012F624003F8012BAB4221
:1057A00084B2F4D1F37B0133F373002CC8D098E8B2
:1057B0000F0087E80F005149384600F0A7FCDBE7EF
:1057C000F37B0133F373BBE707072BD44B494C48FA
:1057D00000F09CFC002C6CD0494E317848482A4699
:1057E000013C12F8013B4B403370A4B20646103521
:1057F0000746012101F1010C04F1FF3ECCB117F87D
:10580000011F12F8013B4B40AA425FFA8CF11FFACC
:105810008EF400F8013FEDD184B13849384800F0EA
:1058200075FCDAE7364E002333607360B360F360D3
:10583000D0E7735C83F0800373540124002368462F
:105840002E49009301930293039300F05FFC9DF8AF
:1058500000506F466A462B460DF10F0004E002F837
:10586000013B82420B462AD051785B000E06DBB228
:10587000F5D543F00103F2E752000B068DF80F2037
:1058800005D59DF80F3083F087038DF80F301D4B41
:105890000DF1FF3103F1100413F8010F11F8012F7E
:1058A0009C4282EA00021A70F6D11449144800F0B2
:1058B0002DFC1348FDF7C2FC04B0BDE8F08149009F
:1058C0002A068DF80F1005D59DF80F3083F0870359
:1058D0008DF80F30002CDAD09DF800100B4604E054
:1058E00007F8013B87421346C6D07A785B0014065E
:1058F000DBB2F5D543F00103F2E700BF8020FF1FC4
:105900009020FF1F8F20FF1F00207047704700BFAF
:10591000704700BF00207047012070472DE9F84311
:105920004A4C2468A668277881460C4690461D4656
:1059300096B1474A4749484802F15C0E01E072457A
:1059400007D031F8023F90FBF3F39E4252F804CFA8
:10595000F5D34CF0605200E0404A414EF37AEBB18F
:1059600072B6F17ACB07084609D5DFF810E1F06886
:10597000DEF800300340B3610846CEF800308907F6
:1059800009D5DFF8FCE03169DEF80030F07A0B4031
:10599000F361CEF8003043074FD462B63368D9685C
:1059A0008A4207D02F4818602F49DA6042F08040C1
:1059B000186119600021384607F092FD31684FF0F8
:1059C0000043CB62C1F83490C86A0028FCDA8B6BC4
:1059D000B8F1000F16D004EB08004FF0004E7DB96F
:1059E0002378C1F82CE04B63CA6A002AFCDA8B6B7F
:1059F00005B123700134844204D03168002DEFD00A
:105A00000023EEE70121384607F06AFDF37A1449D6
:105A10001A46CBB1D80703D5144A896911601A46D2
:105A2000990703D5124BF169F27A1960530702D531
:105A3000104B326A1A60BDE8F8830F497369086831
:105A4000034033620B60A8E7BDE8F883A815FF1F89
:105A5000A46B0100E26A010000879303054000384F
:105A60003C07FF1F01403F0000003F8000E100E0D5
:105A700004E100E008E100E088E100E080E100E00E
:105A800084E100E0064B1A685378FF2B014606D0EC
:105A90009279511A184618BF012107F021BD7047AD
:105AA000A815FF1F10B50C4C23689B78FF2B07D05F
:105AB000012806D918460021BDE8104007F024BD92
:105AC00010BD0146184607F00BFD236801219878A8
:105AD000BDE8104007F018BDA815FF1F024B1B685A
